:020000040800F2
:100000002007002089010008231D0008E51B0008C7
:10001000211D00087F030008712700080000000070
:100020000000000000000000000000004120000867
:100030008103000800000000251D0008432000087F
:10004000A3010008A3010008A3010008A301000800
:10005000A3010008A3010008A3010008A3010008F0
:10006000A3010008A3010008A3010008A3010008E0
:10007000A3010008A3010008A3010008A3010008D0
:10008000A3010008A3010008A3010008A3010008C0
:10009000A3010008A3010008A3010008A3010008B0
:1000A000A3010008A3010008A3010008A3010008A0
:1000B000A3010008A3010008A3010008A301000890
:1000C000A3010008A3010008A3010008A301000880
:1000D000A3010008A3010008A3010008A301000870
:1000E000A3010008D11E0008A301000800F002F8D7
:1000F00000F03AF80AA090E8000C82448344AAF188
:100100000107DA4501D100F02FF8AFF2090EBAE885
:100110000F0013F0010F18BFFB1A43F0010318473B
:100120001427000034270000103A24BF78C878C193
:10013000FAD8520724BF30C830C144BF04680C60ED
:10014000704700000023002400250026103A28BF35
:1001500078C1FBD8520728BF30C148BF0B60704739
:100160001FB51FBD10B510BD00F0CFF81146FFF749
:10017000F7FF02F00FFB00F0EDF803B4FFF7F2FF1A
:1001800003BC00F0F5F80000094880470948004723
:10019000FEE7FEE7FEE7FEE7FEE7FEE7FEE7FEE737
:1001A000FEE7FEE704480549054A064B7047000094
:1001B000D5200008ED0000082001002020070020C5
:1001C000200300202003002053EA020C00F0698085
:1001D0002DE9F04B4FF00006002B1FBFB3FA83F55B
:1001E00003FA05F424FA05F65E4012BF1643B2FA8C
:1001F00082F502FA05F4C5F120051EBF22FA05FCBE
:1002000044EA0C04203556EA044C4FEA144418BF63
:10021000641C4FF000084FF00009904271EB030C92
:1002200039D3002919BFB1FA81F701FA07F6B0FAFC
:1002300080F700FA07F6C7F120071EBF20FA07FC77
:1002400046EA0C062037B6FBF4FCA7EB0507103F87
:1002500007F01F0BCBF120060CFA0BFB2CFA06F66D
:1002600044BFB3460026202FA4BF5E464FF0000BCC
:100270005BEA060C08BF4FF0010B19EB0B09ABFB57
:10028000027C48EB0608C01B06FB02CC0BFB03CC30
:1002900071EB0C01C1E70B46024641464846BDE8FA
:1002A000F08B13B54FF000004FF00001AFF300806A
:1002B000BDE81C4070474FF0000200B5134694465D
:1002C0009646203922BFA0E80C50A0E80C50B1F1AE
:1002D0002001BFF4F7AF090728BFA0E80C5048BFC2
:1002E0000CC05DF804EB890028BF40F8042B08BF60
:1002F000704748BF20F8022B11F0804F18BF00F85C
:10030000012B7047704770477047754600F02CF816
:10031000AE4605006946534620F00700854618B0F2
:1003200020B5FFF73FFFBDE820404FF000064FF03B
:1003300000074FF000084FF0000B21F00701AC461A
:10034000ACE8C009ACE8C009ACE8C009ACE8C00939
:100350008D46704710B50446AFF300802046BDE8D7
:100360001040FFF70ABF000000487047C00000209F
:1003700001491820ABBEFEE7260002007047FEE7E9
:10038000704710B501F03DFB0121002000F0FEFA9E
:10039000BDE8104001F01ABB10B50C4801F039FB64
:1003A0000B48C16D21F00101C16501F02AFB01205C
:1003B00000F0C0FA01F00AFB01F034FCBDE8104087
:1003C00001220449014801F0D9BB000014000020BB
:1003D000001002400000002072B6FEE770B504462F
:1003E00000F09CF90546601C02D0044800780444E3
:1003F00000F094F9401BA042FAD370BD0400002025
:100400002DE9F84F00230126DFF818C10F2782E0FD
:1004100006FA03F414EA01027CD023F003056544D4
:10042000AA46D5F808909D074FEA157E07FA0EF503
:1004300005EA090B0095B0F1904F05D03A4DA8425E
:1004400005D14FF0010816E04FF0000813E0374DDA
:10045000A84202D14FF002080DE0354DA84202D16A
:100460004FF0030807E0334DA84202D14FF00408D3
:1004700001E04FF0070808FA0EF8D84526D1DFF85A
:10048000B880D8F8009029EA0209C8F8009008F16D
:100490000408D8F8009029EA0209C8F80090DFF8AB
:1004A000988008F10C08D8F8009029EA0209C8F8E9
:1004B0000090A8F10408D8F800509543C8F80050FF
:1004C000009DDAF80820AA43CAF80820D0F8008076
:1004D0004FEA4309032202FA09F248EA0208C0F887
:1004E0000080DD0800EB8505AA46D5F820804FEA9C
:1004F00043794FEAD96907FA09F528EA0508CAF8E5
:1005000020808568954385604568A5434560C4683B
:100510009443C4605B1C31FA03F27FF479AF00F0BE
:100520000DB8000000000140000400480008004829
:10053000000C0048001000480004014018BCBDE851
:10054000E08F00002DE9F04FDFF8AC910023032588
:10055000A9F1040B85B04FF0010C0F2709F1040A33
:10056000ABF1040EBFE000BF0CFA03F6324075D0C9
:100570000C7904F00304012C01D0022C1BD18468F7
:1005800000945C0005FA04F80494009C24EA080432
:100590000094D1F80C80049C08FA04F8009C48EA06
:1005A0000408C0F808804468B4430E79C6F3001606
:1005B0009E40264346600C79E443A4070AD0C468F1
:1005C0004FEA430805FA08F6B4438E6806FA08F6BF
:1005D0002643C6600C7904F00304022C10D1DC0819
:1005E00000EB84040294246A5E074FEAD66807FA97
:1005F00008F6B4430E6906FA08F62643029C266202
:1006000004684FEA430805FA08F6B4430E7906F089
:10061000030606FA08F6264306604C6814F4403FC9
:1006200060D0364C266E46F001062666246E23F016
:10063000030604F001040094314C34440294A4688D
:100640009E074FEA167807FA08F6B443B0F1904FC8
:1006500005D02C4EB04204D1012612E042E0002623
:100660000FE0294EB04201D102260AE0274EB042E7
:1006700001D1032605E0264EB04201D1042600E058
:10068000072606FA08F62643029CA660D9F8006001
:100690004C46D1F8048096435FEAC82800D516433B
:1006A0002660DAF800405646D1F8048094435FEAA9
:1006B000882800D514433460DBF800405E46D1F84A
:1006C000048094435FEA883800D514433460DEF830
:1006D00000407646D1F8048094435FEAC83800D5DC
:1006E000144334605B1C0A6832FA03F47FF43CAFB5
:1006F00005B000F00FB800000804014000100240EF
:10070000000001400004004800080048000C0048B8
:100710000010004830BCBDE8C08F00000148806870
:1007200070470000040000200248816802781144EC
:10073000816070470400002010B50024032000F001
:1007400089F80F2000F008F808B1012401E000F05A
:1007500025F8204610BD000070B50E4E0546002459
:10076000307898B14FF47A71B1FBF0F00A4909681A
:10077000B1FBF0F001F031F940B9102D06D20022A2
:100780002946501E00F046F8756000E0012420461E
:1007900070BD000004000020100000200D4808B5C6
:1007A000016E41F001010166016E01F0010100914D
:1007B000816D41F080518165806D002200F0805094
:1007C00000901146012000F025F8BDE80840012006
:1007D00000F013B80010024000280DDB00F01F02EB
:1007E000012191404009800000F1E020C0F8801113
:1007F000BFF34F8FBFF36F8F7047002809DB00F006
:100800001F02012191404009800000F1E020C0F862
:1008100000117047F0B40E4B1B680C46C3F3022363
:10082000C3F10705042D00D90425191D072901D29C
:10083000002300E0DB1E012606FA05F1491E2140D7
:1008400099409E40761E16403143F0BC01F091BFA6
:100850000CED00E0064900F0070208684FF6FF03C0
:10086000184040EA0220034A104308607047000025
:100870000CED00E00000FA051649B0F5007F0868AD
:10088000C0F3412009D0022805D0086820F4C060D8
:1008900040F480600860002070470128FBD00868A1
:1008A00020F4C06040F4007008600B4832220068F9
:1008B00050430A4AB0FBF2F0401C00E0401E4A6977
:1008C000520501D50028F9D148694005E3D5032038
:1008D00070470000007000401000002040420F00F0
:1008E0000D49086820F4804008600C4832220068F6
:1008F00050430B4AB0FBF2F0401C00E0401E4A6936
:10090000920501D50028F9D14869800501D5032059
:100910007047002070470000007000401000002069
:1009200040420F000248016841F480410160704775
:10093000007000400B490A6822F00702921C0A600E
:1009400009490A6842F004020A60012807D040BF42
:1009500020BF20BF086820F004000860704730BF47
:10096000F8E700000070004010ED00E00248006869
:1009700000F4C06070470000007000400248016849
:1009800041F48071016070470070004010B50C4662
:100990000E49002848690FD0C043800501D5FFF7F4
:1009A000C1FF0B48016821F004010160012C0AD04D
:1009B00040BF20BF20BF10BD8005F2D5FFF790FFDC
:1009C0000028F8D1EDE730BF10BD000000700040F6
:1009D00010ED00E02DE9F84F044600270088A84DEF
:1009E0003E46000515D5606C60B1B0F5000F04D02F
:1009F000B0F5400F2BD001270AE0E86840F48030C2
:100A0000E86024E00021201D01F08EF907001ED0CF
:100A10003E46206880033AD5A86D4FF00008C0001C
:100A200009D4A86D40F08050A865A86D4FF001086A
:100A300000F080500090DFF84CA2DAF8001041F48A
:100A40008071CAF80010FFF769FE814610E0D5F802
:100A50008800616C20F440000843C5F88800D8E79E
:100A6000FFF75CFEA0EB0900022801D9032705E08F
:100A7000DAF80000C005F3D5002F7DD04FEA070655
:100A8000B8F1000F03D0A86D20F08050A865207841
:100A9000C00707D0D5F88800216A20F0030008437A
:100AA000C5F888002078800707D5D5F88800616AE6
:100AB00020F00C000843C5F888002078400707D5CF
:100AC000D5F88800A16A20F030000843C5F88800F6
:100AD0002078800607D5D5F88800E16A20F44060C8
:100AE0000843C5F888002088800507D5D5F8880018
:100AF000E16B20F440200843C5F8880020884005B9
:100B000007D5D5F88800216C20F440100843C5F8BB
:100B100088002078400607D5D5F88800216B20F49E
:100B200040500843C5F888002078000607D5D5F85E
:100B30008800616B20F440400843C5F88800208895
:100B4000C00507D5D5F88800A16B20F440300843D4
:100B5000C5F8880020684FF0006700034FF08068F8
:100B600050D5D5F88800A16C20F040600843C5F846
:100B70008800A06CB84200E005E03BD1E86840F492
:100B80008010E8603EE0D5F8900010F4407014D07A
:100B9000A16D814211D0D5F89000D5F8901020F4C5
:100BA000407041F48031C5F89010D5F8901021F4D0
:100BB0008031C5F89010C5F89000C00711D0FFF73C
:100BC000ADFD074641F2883907E000BFFFF7A6FDFB
:100BD000C11B494501D9032652E7D5F8900080078B
:100BE000F4D5D5F89000A16D20F440700843C5F805
:100BF000900045E7404505D10121201D01F094F802
:100C000000B106462068400317D5D5F88800E16C8E
:100C100020F040600843C5F88800E06CB84204D179
:100C2000E86840F48010E86007E0404505D1012104
:100C3000201D01F079F800B106462088400411D546
:100C4000D5F88800216D20F040500843C5F8880091
:100C5000206DB0F1805F05D10221201D01F064F804
:100C600000B106462088000406D555F8880F616D4E
:100C700020F0804008432860304600F005B80000AE
:100C8000001002400070004018BCBDE8E08F00007A
:100C90002DE9F0470F4605006BD0494E306800F053
:100CA0000700B84209D2306820F0070038433060AE
:100CB000306800F00700B8425BD12878414C8007CB
:100CC0000AD5A868A16801F0F001884204D9A1689A
:100CD00021F0F0010143A1602878C0072CD068689A
:100CE000032811D0022812D0216898B149050029A3
:100CF0003FDAA16821F003010143A160FFF70EFD77
:100D0000804641F2883910E021688901EFE72168C7
:100D10008903ECE78907EAE7FFF700FDA0EB08018C
:100D2000494502D90320BDE8F087A068696800F052
:100D30000C00B0EB810FEFD1287880070AD5A868A6
:100D4000A16801F0F001884204D2A16821F0F0010D
:100D50000143A160306800F00700B8420BD9306849
:100D600020F0070038433060306800F00700B842D8
:100D700001D00120D7E72878400705D5A068E968A9
:100D800020F4E0600843A0602878000706D5A0683A
:100D9000296920F4605040EAC100A06000F03EF8EC
:100DA000A168094AC1F30311515C01F01F01C84059
:100DB0000649086006480068BDE8F047FFF7CCBC6C
:100DC0000020024000100240EC2700081000002024
:100DD000080000200548064900688968054AC1F3F3
:100DE0000221515C01F01F01C84070471000002033
:100DF000001002402C280008054806490068896850
:100E0000054AC1F3C221515C01F01F01C84070477F
:100E100010000020001002402C28000870B5254961
:100E2000002318468A68CC6812F00C0204F003060E
:100E3000214C4FEA640509D00C2A05D0042A32D08F
:100E4000082A00D1284670BD012E10D10B681B075F
:100E500004D4D1F89430C3F3032302E00B68C3F346
:100E60000313164E56F82330DAB10C2AEBD1C868BA
:100E700000F00300022818D0032818D01846CA68CA
:100E8000CB68C2F30212C3F306234343521CB3FBE5
:100E9000F2F2C868C0F34160401C4000B2FBF0F0C1
:100EA00070BD184670BD204670BD2046E7E7284655
:100EB000E5E70000001002400024F400FC270008D1
:100EC0002DE9F84304006FD0FA4DA86800F00C0635
:100ED000E86800F003072078C00664D576B10C2ED0
:100EE00001D1012F0AD0A069002828687AD040F0EB
:100EF00001002860FFF712FC80465DE0286880074B
:100F000002D5A0690028DED0216A2868000703D531
:100F1000286800F0F00004E0D5F89400F02202EA1E
:100F20001010814216D9084600F094FF00283BD1EA
:100F3000286840F0080028602868216A20F0F00046
:100F4000084328606868E16920F47F4040EA012096
:100F5000686016E0286840F0080028602868216A68
:100F600020F0F000084328606868E16920F47F40C1
:100F700040EA0120686026B9206A00F06BFF002873
:100F8000D5D1FFF74BFFA968CB4AC1F30311515CE0
:100F900001F01F01C840C9490860C9480068FFF74F
:100FA000DBFB00287ED12EE0CAE000BFFFF7B6FBD6
:100FB000A0EB0800022876D828688007F6D52868B4
:100FC00040F0080028602868216A20F0F0000843FB
:100FD00028606868E16920F47F4040EA0120686089
:100FE00011E0FFE720F001002860FFF797FB804643
:100FF00006E000BFFFF792FBA0EB08000228DAD85A
:1010000028688007F6D42078C00740D0082E18D072
:101010000C2E01D1032F14D06068B0F5803F17D09B
:10102000B0F5A02F286817D020F4803028602868F9
:1010300020F4802028606068E0B1FFF76FFB8046F5
:1010400014E02868800322D56068002878D01EE06C
:10105000286840F48030EDE740F480202860F7E70E
:10106000FFF75CFBA0EB08006428A4D82868800385
:10107000F6D50CE0FFF752FB804605E0FFF74EFB8C
:10108000A0EB0800642896D828688003F6D420785E
:1010900080073BD5042E11D00C2E01D1022F0DD08C
:1010A000E06801E0AAE1FFE0002828681ED040F4D3
:1010B00080702860FFF732FB07460CE02868400587
:1010C0000CD5E0680028C1D008E000BFFFF726FB80
:1010D000C01B022893D828684005F7D56868217C92
:1010E00020F0F85040EA016068600FE020F4807062
:1010F0002860FFF713FB074605E000BFFFF70EFB74
:10110000C01B0228B1D828684005F7D42078000712
:1011100029D560690028D5F8940012D040F001006C
:10112000C5F89400FFF7FAFA074604E0FFF7F6FA6D
:10113000C01B022899D8D5F894008007F6D512E094
:101140002BE120F00100C5F89400FFF7E7FA07460D
:1011500005E000BFFFF7E2FAC01B022885D8D5F8EA
:1011600094008007F6D42078400766D5A86D002744
:10117000C00008D4A86D40F08050A865A86D012774
:1011800000F0805000904F480168C90512D40168F2
:10119000814641F480710160FFF7C0FA804605E0A6
:1011A000FFF7BCFAA0EB080002287DD8D9F80000B0
:1011B000C005F5D5A068012816D00528D5F89000FF
:1011C00017D020F00100C5F89000D5F8900020F06D
:1011D000040000BFC5F89000A06841F28839C0B192
:1011E000FFF79CFA80460FE0D5F8900040F0010030
:1011F000F0E740F00400C5F89000F5E7FFF78EFA3D
:10120000A0EB080149454FD8D5F890008007F5D5E7
:101210000EE0FFF783FA804606E000BFFFF77EFA94
:10122000A0EB080149453FD8D5F890008007F5D4D8
:101230001FB1A86D20F08050A8652078800628D5C1
:10124000606A0028D5F8980012D040F00100C5F877
:101250009800FFF763FA074605E000BFFFF75EFA64
:10126000C01B022820D8D5F898008007F6D510E0DA
:1012700020F00100C5F89800FFF750FA074604E097
:10128000FFF74CFAC01B02280ED8D5F8980080074B
:10129000F6D4A06AF0B3022816D00C2E7DD02868B0
:1012A00020F08070286000E0A7E0FFF737FA0446DE
:1012B000A6E0000000100240EC270008100000200B
:1012C0000800002000700040E868E26A00F00301B6
:1012D000914228D1216B00F070020901103991422E
:1012E00021D1626B00F4FE41B1EB022F1BD194F8C7
:1012F000382000F07841B1EBC26F14D1A18F00F417
:10130000C00249084905A1F5001191420BD194F89A
:10131000401000E06AE04908490600F0C060A1F111
:10132000007181424BD00C2E73D02868400170D4DC
:10133000286820F080702860FFF7F0F9064604E086
:10134000FFF7ECF9801B022857D828688001F7D4F2
:10135000F4E90B016FF00F0202EB01110843218A3F
:101360005204490802EB4151A26841EA02210843B4
:10137000217D4FF07E42490802EB41610843217B09
:1013800040EAC160E968244A11400843E8602868DF
:1013900040F080702860E86800E03AE040F080703B
:1013A000E860FFF7BBF9044605E000BFFFF7B6F9B8
:1013B000001B022821D828688001F7D527E028687B
:1013C000800124D4286840F080702860E86840F0EC
:1013D0008070E860FFF7A2F9044604E0FFF79EF989
:1013E000001B022809D828688001F7D50FE000BF4C
:1013F000FFF794F9001B022802D90320BDE8F88307
:1014000028688001F4D4E86804490840E8600020B6
:10141000F4E70120F2E700008C809D01FCFFEEFE66
:101420007047704710B5144904464FF48020086097
:1014300020688168C9040BD5C168C90508D5C16891
:1014400001F0800161F4C071C1602046FFF7E9FF3F
:101450002068816889040BD5C168890508D5C168F1
:1014600001F0800161F42071C1602046FFF7D8FFD0
:10147000012084F8210010BD140401402DE9F0473B
:10148000044690F82000012823D04FF0010884F88A
:101490002080022084F821002268CA20506222683D
:1014A0005320506220680025FF26B1F5807F8168B7
:1014B0004FF0030A4FF47A790ED021F40071816065
:1014C0002068816821F400518160FFF727F9074601
:1014D00025E00220BDE8F08721F48071816020685A
:1014E000816821F480518160FFF718F9074604E014
:1014F000FFF714F9C01B484509D82068C068C00729
:10150000F6D010E0FFF70AF9C01B484507D920685C
:10151000466284F821A084F820500320DAE720688E
:10152000C0688007EED52068466284F8218084F880
:1015300020500020CEE7000010B50B460168896AF4
:10154000596001680969C1F30E019960006801687A
:101550000D480140C1F305401870C1F306245C70CA
:1015600001F07F049C70890DD97052B900F0B6FC6F
:101570001870587800F0B2FC5870987800F0AEFC03
:101580009870002010BD00007F7F7F0010B5040020
:101590004FF0010048D094F8210028B9002084F8C9
:1015A0002000204600F04AF8022084F8210020683C
:1015B000C168C943C90638D5CA2141622168532090
:1015C0004862204600F0A0FCB0B9206881681A4A41
:1015D00011408160216888686268A36910432269AC
:1015E0001A43104388602168E06808612068016937
:1015F000228941EA02410161204600F0A9FC00284D
:101600000DD12168CA6C22F00302CA646269E169E3
:1016100041EA02012268D36C41EA0301D1642268E5
:101620004FF0FF01516202D010BD4FF000004FF0AB
:10163000010184F8211010BDBFFF8FFF10B598B0D5
:1016400004465C216846FEF736FE0F492068884252
:1016500018D14FF400300090401216906846FFF702
:10166000B9F908B1FEF7B8FE084850F8901F41F4E8
:1016700000410160002211462920FFF7CBF8292004
:10168000FFF7BBF818B010BD002800400010024062
:101690002DE9F05F044690F820000B46012844D065
:1016A000012084F82000022084F821002068002610
:1016B00080684FEA4060BAB3002800DBDE7098789B
:1016C0001978DA7840EA01405978090241EA8251F2
:1016D000084393F8241040EA0165186A5F680543DF
:1016E000586921680543D8690743CA2048622168C0
:1016F00053204862986A4FF0FF08B0F5807F206859
:101700004FF0030B4FF47A7A81682BD021F40071EB
:1017100081602068C16801F0800161F42071C160BE
:10172000FEF7FCFF814652E002E0022000F078B8AC
:10173000002800DBDE70187800F0D9FB050458782B
:1017400000F0D5FB45EA0025987800F0D0FB054372
:10175000D87845EA805593F8240000F0C8FB45EAA4
:101760000065BAE721F4807181602068C16801F0EA
:10177000800161F4C071C160FEF7D0FF814605E0D1
:10178000FEF7CCFFA0EB0900504517D82068C068D1
:10179000C007F5D02068C56120684764206881686B
:1017A00041F4807181602068816841F480511FE0BC
:1017B000FEF7B4FFA0EB0900504508D92168C1F835
:1017C000248084F821B084F820600320AEE72068EC
:1017D000C0688007ECD520680562206887642068AF
:1017E000816841F4007181602068816841F4005192
:1017F00081600A48016841F480210160074808308F
:10180000016841F4802101602168C1F82480012031
:1018100084F8210084F82060002087E7000401405C
:1018200030BCBDE8C09F000070B5044690F82000B1
:101830000B4601281BD0012684F82060022084F882
:101840002100B2B19878D97840EA014558781978E2
:10185000000240EA413005432168CA2048622168FD
:1018600053204862204600F04FFBD0B120E0022018
:1018700070BD5878C10603D500F0EF000A305870EB
:10188000D87800F034FB0504587800F030FB45EAC6
:101890000025987800F02BFB0543187845EA403581
:1018A000DAE70848054020684560204600F050FB14
:1018B0002268FF21516208B984F82160002184F870
:1018C000201070BD3FFFFF002DE9F041044690F865
:1018D000200090460D46012811D0012784F8207081
:1018E000022084F821002168CA2048622168532020
:1018F0004862204600F008FB002618B129E00220CB
:10190000BDE8F0812068B8F1000F80684FEA4060C0
:1019100024D0002800DBEE70A8782978EA7840EA25
:1019200001406978090241EA825108431849084098
:10193000216808602068816821F480218160D5E9F0
:101940000301084321688A6810438860204600F03C
:10195000FFFA2268FF215162A0B115E0002800DBE8
:10196000EE70287800F0C3FA0304687800F0BFFA3C
:1019700043EA0023A87800F0BAFA0343E87843EA80
:101980008050D3E784F8217084F82060B8E7000025
:101990007F7F7F0070B504460B482168C860FEF762
:1019A000BDFE05464FF47A7607E000BFFEF7B6FEAF
:1019B000401BB04201D9032070BD2068C06880067A
:1019C000F4D5002070BD00005FFF03004FF0E02061
:1019D000016941F002010161704710B5401EB0F18C
:1019E000807F01D3012010BD4FF0E02460610F2102
:1019F000601700F0BEFE0020A061072020610020DB
:101A000010BD4FF0E020016921F002010161704733
:101A1000704770B504001BD02420E067206801687F
:101A200021F0010101602068002505602068456003
:101A300020688560204600F041F8C4F88450E567CE
:101A4000C4F8805044F8605F65602576002070BD62
:101A5000012070BD10B5040002D0E06F10B107E0A6
:101A6000012010BD002084F87800204600F040F8E6
:101A70002420E0672068016821F001010160606AAC
:101A800010B1204600F027FB204600F0CBFC0128D7
:101A9000E7D02068416821F4904141602068816866
:101AA00021F02A0181602068016841F00101016094
:101AB0002046BDE8104000F072BB000010B5006881
:101AC000084988420DD10848C16D21F00101C16566
:101AD00003210648FEF794FCBDE810404620FEF7BF
:101AE0007BBE10BD0080004000100240000800488E
:101AF00010B59EB00446142117A8FEF7DCFB5C214C
:101B00006846FEF7D8FB1A49206888422ED120206B
:101B1000002400900B946846FEF75CFF08B1FEF7C6
:101B20005BFC1448C16D41F00101C165C16D01F05C
:101B300001011C91C16C41F00401C164C06C17AA81
:101B400000F004001C900320022182E813001A9088
:101B500008201B9017A90848FEF7F4FC0022114644
:101B60004620FEF757FE4620FEF747FE1EB010BD8A
:101B700000800040001002400008004830B4D0F857
:101B80008030202B02D0022030BC7047A9B1A2B116
:101B9000002303660A4C0368A3420BD05B681B0258
:101BA00008D5046854E8003F43F0806344E80035FA
:101BB000002DF6D130BC00F035BD0120E4E7000077
:101BC0000080004000680449884204D10122034992
:101BD0000348FFF7D3BF704700800040000000209B
:101BE00014000020FEE700000D4808B5C16C41F06C
:101BF0000401C164C16C01F004010091C16C41F0A9
:101C00008001C164C16C01F080010091C16C41F0A0
:101C10000101C164C06C00F00100009008BD00002B
:101C2000001002400D4810B50B4901600C4941609D
:101C30004FF08051816000210C22C160C0E9041284
:101C4000816101624162FFF705FF002803D0BDE812
:101C50001040FEF7C1BB10BD008000401400002002
:101C60002433030030B591B014210BA8FEF723FBF9
:101C700000242C2168461094FEF71DFB27482649B6
:101C8000C0E900147F218160FF21C0E90314446191
:101C90008461C461FFF77AFC08B1FEF79DFB8DF803
:101CA0002C408DF82D408DF82E400E9401220BA96A
:101CB0001A480F94FFF708FE08B1FEF78DFB0125C7
:101CC0008DF840508DF841508DF842508DF84340CA
:101CD0002A4610A91148FFF7A7FD08B1FEF77CFBC3
:101CE0008DF800408DF801408DF8024005944FF4C6
:101CF0008070039404940A900194079408948DF8DA
:101D00002450012269460548FFF7C2FC002801D093
:101D1000FEF762FB11B030BD002800409C0000209F
:101D2000FEE7FEE7704700002DE9F041444C054610
:101D30008846E0680026810728680DD0E16801F038
:101D40000301814216D1A8B1E0686968C0F30210AE
:101D5000401C88420ED120E0012804D0022805D082
:101D6000032807D108E02168890701E021684905B7
:101D7000002907DB01265FE02168890302D421687E
:101D80004903F5E7E1686A686FF00F0321F073011A
:101D900003EB021211430143E160206820F08060F0
:101DA0002060FEF7BBFC074605E000BFFEF7B6FC6F
:101DB000C01B022837D820680001F7D4B8F1000F03
:101DC00018D0B8F1010F1DD0287D4FF07E4140089A
:101DD00001EB4060A96840EA01202169194A1140DD
:101DE00008432061206840F080602060FEF796FC88
:101DF00007461AE0A868297B000240EAC160216911
:101E0000114AECE7288A1149400801EB4050A968C3
:101E100040EA012021690E4AE1E700BFFEF77EFC9F
:101E2000C01B022801D9032606E020680001F5D571
:101E30002069A969084320613046BDE8F0810000AF
:101E400000100240FF80FFF9FF80FF070000E0FF65
:101E5000FF809FFFF8B51C4D06460024A86DC0000A
:101E600002D5FEF783FD0DE0A86D40F08050A86517
:101E7000A86D00F080500090FEF778FDA96D21F06C
:101E80008051A965B0F5007F04D0802E07D94FF0AE
:101E900003040AE0802E08D9A02E01D804E001D165
:101EA000022402E0702E00D101240848016821F0CC
:101EB000070121430160006800F00700A04201D043
:101EC0000120F8BD0020F8BD0010024000200240B3
:101ED0000148FFF7A7BA00009C000020010901EBB0
:101EE000810100F00F0000EB4100C0B270470022FA
:101EF000014602E00A39C9B2521C0A29FAD2100777
:101F000041EA1060704700002DE9F0410446006886
:101F10000025C168490617D4691EC160FEF7FEFBA3
:101F200006464FF47A78032708E000BFFEF7F6FB79
:101F3000801B404502D9032584F821702068C068C1
:101F4000400601D4032DF1D12846BDE8F081000000
:101F50002DE9F041064613480025016821F0800173
:101F60000160041F20684FF00307800607D4304645
:101F7000FFF710FD90B186F8217003250EE0206870
:101F800020F0200020603046FFF704FD10B186F8F5
:101F900021700325206840F0200020602846BDE81D
:101FA000F08100000C28004010B590B004462C21B0
:101FB0006846FEF780F914210BA8FEF77CF9002291
:101FC0000BA91D48FFF7B8FA9DF82E009DF82C10BC
:101FD00002199DF82D003C233C2A06D3B2FBF3F4F2
:101FE0002044B2FBF3F403FB14223C2806D3B0FBDD
:101FF000F3F42144B0FBF3F403FB1400182904D3D9
:102000001823B1FBF3F403FB14118DF800108DF8C5
:10201000010000208DF802204FF4807101900A9198
:10202000064805900448FFF729FA0022694602484D
:10203000FFF72EFB10B010BD9C00002000808080B8
:102040007047FEF771BB000010B596B0442168469A
:10205000FEF731F9142111A8FEF72DF94FF40070A5
:10206000FEF70AFC08B172B6FEE7FEF787FC1848D7
:1020700050F8901F21F018010160052000904FF4E6
:10208000803001900120022103240A910290CDE9C1
:102090000B400C200D900720CDE90E01042010907C
:1020A0006846FEF70DFF08B172B6FEE70F20CDE9D6
:1020B00011040020139014901590012111A8FEF72F
:1020C000E7FD002801D072B6FEE716B010BD000093
:1020D00000100240704790F82410090706D50168E7
:1020E0004A68436B22F400421A434A6090F8241075
:1020F000C90706D001684A68836A22F400321A438D
:102100004A6090F82410890706D501684A68C36AB6
:1021100022F480321A434A6090F82410490706D509
:1021200001684A68036B22F480221A434A6090F8DF
:102130002410C90606D501688A68836B22F4805290
:102140001A438A6090F82410890606D501688A68C7
:10215000C36B22F400521A438A6090F82410490697
:1021600011D501684A68036C22F480121A434A6050
:10217000016CB1F5801F06D101684A68436C22F4F6
:10218000C0021A434A6090F82410090606D5016877
:102190004A68806C22F4002202434A6070472DE9AD
:1021A000F84300260446C0F88460FEF7B7FA80467C
:1021B000206800684FF0200500076FF07E4712D5B9
:1021C0004346002229042046009700F087FA50B1C8
:1021D000216851E8000F20F0800041E80002002A49
:1021E000F6D1E56721E020680068400722D5434624
:1021F00000224FF480012046009700F06FFAC8B12A
:10220000216851E8000F20F4907041E80002002A94
:10221000F6D12068083050E8001F21F0010140E8A5
:102220000012002AF5D1C4F8805084F878600320A9
:10223000BDE8F883E567C4F8805044F8606F6660D5
:1022400026760020F4E7016851E8002F22F490720E
:1022500041E80023002BF6D10168083151E8002F36
:1022600022F0010241E80023002BF5D1016E012983
:1022700008D1026852E8001F21F0100142E8001363
:10228000002BF6D12021C0F8801000210166816664
:102290007047000010B5B0F85C20D0F880300168BD
:1022A000222B04D0886940F00800886110BD496A7B
:1022B000436D11401980416D891C4165B0F85A1079
:1022C000491EA0F85A10B0F85A100029EED1026841
:1022D00052E8001F21F4907142E80013002BF6D160
:1022E0000168083151E8002F22F0010241E8002383
:1022F000002BF5D12021C0F88010002181664166B5
:10230000154B02689A420BD05268120208D5036836
:1023100053E8002F22F0806243E80024002CF6D11D
:10232000026E012A02D0FFF74DFC10BD0166026863
:1023300052E8001F21F0100142E80013002BF6D1F3
:102340000168CA69D243D20601D410220A62B0F8E9
:102350005810FFF75DFB10BD0080004010B5B0F8CD
:102360005C20D0F880300168222B04D0886940F0CE
:102370000800886110BD496A1140426D1170416DBD
:10238000491C4165B0F85A10491EA0F85A10B0F81F
:102390005A100029EED1016851E8002F22F4907202
:1023A00041E80023002BF6D10168083151E8002FE5
:1023B00022F0010241E80023002BF5D12021C0F8D2
:1023C0008010002181664166154B02689A420BD04D
:1023D0005268120208D5036853E8002F22F0806289
:1023E00043E80024002CF6D1026E012A02D0FFF748
:1023F000E9FB10BD0166026852E8001F21F01001E0
:1024000042E80013002BF6D10168CA69D243D20614
:1024100001D410220A62B0F85810FFF7F9FA10BD83
:10242000008000402DE9F04104460168806822697F
:10243000E3691043626900251A431043714F0A682B
:10244000714B1A4002430A6020684168E26821F437
:102450004051114341602168A069B94201D0226A0C
:1024600010438A6822F4306202438A606749236815
:1024700067488B420DD1D0F8880010F0030006D0D9
:10248000012847D0022843D0032830D144E001215D
:102490002EE060498B420BD1D0F8880010F00C0080
:1024A00034D0042836D0082832D00C281FD133E08D
:1024B00059498B420BD1D0F8880010F0300025D05C
:1024C000102827D0202823D0302810D124E0BB4268
:1024D0000DD1D0F8880010F4406017D0B0F5806FAF
:1024E00018D0B0F5006F13D0B0F5406F14D01021A4
:1024F0004A4A00264FF40040BB422FD171B1022955
:102500000FD004290FD0082973D10FE00021EFE785
:102510000221EDE70421EBE70821E9E7FEF75AFC89
:1025200003E0104602E0FEF779FCE8B3626802EBD4
:10253000420181425DD8B0EB023F5AD8010E03023E
:102540005008181871410023FDF73EFE344AA0F5EB
:10255000407191424DD82168C8604BE0E3694FF665
:10256000EF77834228D1092943D2DFE801F005083B
:102570000B420D4242421000FEF72CFC06E0FEF733
:102580003BFC03E0104602E0FEF748FC60B141006E
:10259000606801EB5001B1FBF0F0A0F11001B9420D
:1025A00027D84FF6F07100E024E00140C0F342006C
:1025B00001432068C1601DE009291AD2DFE801F05B
:1025C00005080B190D1919191000FEF703FC06E098
:1025D000FEF712FC03E0104602E0FEF71FFC48B1D4
:1025E000616800EB5100B0FBF1F0A0F11001B942BD
:1025F00005D90125A6662846E666BDE8F08180B2C9
:10260000A9E7000000800040F369FFEF00380140B7
:102610000010024000440040004800400024F40044
:10262000FFFC0F0030B54165A0F85820A0F85A20F3
:102630000022826681684FF48055FF23A94204D1AD
:10264000016969BB40F2FF1130E07F2431B3B1F181
:10265000805F28D0A0F85C20C0F884202221C0F838
:1026600080100168083151E8002F42F0010241E872
:102670000023002BF5D18168A94201D10169D9B1AC
:10268000144981660169C9B1016851E8002F42F41B
:10269000907241E80023002BF6D118E0016941B99E
:1026A000A0F85C30D8E7016919B13F21A0F85C10AF
:1026B000D2E7A0F85C40CFE707498166026852E89C
:1026C000001F41F0200142E80013002BF6D100204A
:1026D00030BD00005D230008952200082DE9F04779
:1026E000994617460D4604464FF00008089E33E011
:1026F000701C31D0FEF712F8A0EB0900B04218D8D8
:10270000BEB120680168490726D5802D24D0402D10
:1027100022D0C169C94309070DD4082505622046A6
:10272000FFF791FDC4F8845084F878800120BDE85B
:10273000F0870320FBE7C069C04300050CD4216883
:102740004FF4006008622046FFF77DFD2020C4F8AA
:10275000840084F87880ECE72068C06935EA0000DE
:1027600004D00020B842C3D00020E0E70120F9E700
:10277000FEE70907090E002804DB00F1E02080F8DD
:102780000014704700F00F0000F1E02080F8141DE5
:1027900070470000FDF7D0FFFFF756FCFFF724FA63
:1027A000FFF740FAFFF75EFA41F28830FDF716FEB8
:1027B00001220C490C48FFF7E1F90320FFF7F4FB75
:1027C000FDF7DFFD0320FFF7EFFBFDF7E5FD03203D
:1027D000FFF7EAFBFDF7E0FD0320FFF7E5FBFDF760
:1027E000D0FDEAE7000000201400002000000000F7
:1027F000000000000102030406070809A08601008A
:10280000400D0300801A060000350C0040420F0006
:1028100080841E0000093D0000127A000024F400AC
:1028200000366E010048E801006CDC020000000088
:1028300001020304542800080000002014000000D6
:102840002801000868280008140000200C07000078
:10285000440100080000000001000000100000001A
:082860000000000000093D002A
:04000005080000ED02
:00000001FF
